{
  "_format": "hh-sol-artifact-1",
  "contractName": "Voting",
  "sourceName": "contracts/Voting.sol",
  "abi": [
    {
      "inputs": [],
      "stateMutability": "nonpayable",
      "type": "constructor"
    },
    {
      "anonymous": false,
      "inputs": [
        {
          "indexed": true,
          "internalType": "uint256",
          "name": "candidateId",
          "type": "uint256"
        },
        {
          "indexed": false,
          "internalType": "string",
          "name": "name",
          "type": "string"
        }
      ],
      "name": "CandidateAdded",
      "type": "event"
    },
    {
      "anonymous": false,
      "inputs": [
        {
          "indexed": true,
          "internalType": "address",
          "name": "voter",
          "type": "address"
        },
        {
          "indexed": true,
          "internalType": "uint256",
          "name": "candidateId",
          "type": "uint256"
        }
      ],
      "name": "Voted",
      "type": "event"
    },
    {
      "inputs": [
        {
          "internalType": "string",
          "name": "name",
          "type": "string"
        }
      ],
      "name": "addCandidate",
      "outputs": [],
      "stateMutability": "nonpayable",
      "type": "function"
    },
    {
      "inputs": [
        {
          "internalType": "uint256",
          "name": "",
          "type": "uint256"
        }
      ],
      "name": "candidates",
      "outputs": [
        {
          "internalType": "string",
          "name": "name",
          "type": "string"
        },
        {
          "internalType": "uint256",
          "name": "voteCount",
          "type": "uint256"
        }
      ],
      "stateMutability": "view",
      "type": "function"
    },
    {
      "inputs": [],
      "name": "getCandidates",
      "outputs": [
        {
          "components": [
            {
              "internalType": "string",
              "name": "name",
              "type": "string"
            },
            {
              "internalType": "uint256",
              "name": "voteCount",
              "type": "uint256"
            }
          ],
          "internalType": "struct Voting.Candidate[]",
          "name": "",
          "type": "tuple[]"
        }
      ],
      "stateMutability": "view",
      "type": "function"
    },
    {
      "inputs": [],
      "name": "getWinner",
      "outputs": [
        {
          "internalType": "string",
          "name": "name",
          "type": "string"
        }
      ],
      "stateMutability": "view",
      "type": "function"
    },
    {
      "inputs": [],
      "name": "owner",
      "outputs": [
        {
          "internalType": "address",
          "name": "",
          "type": "address"
        }
      ],
      "stateMutability": "view",
      "type": "function"
    },
    {
      "inputs": [
        {
          "internalType": "uint256",
          "name": "candidateIndex",
          "type": "uint256"
        }
      ],
      "name": "vote",
      "outputs": [],
      "stateMutability": "nonpayable",
      "type": "function"
    },
    {
      "inputs": [
        {
          "internalType": "address",
          "name": "",
          "type": "address"
        }
      ],
      "name": "voters",
      "outputs": [
        {
          "internalType": "bool",
          "name": "",
          "type": "bool"
        }
      ],
      "stateMutability": "view",
      "type": "function"
    }
  ],
  "bytecode": "0x6080604052348015600f57600080fd5b50336000806101000a81548173ffffffffffffffffffffffffffffffffffffffff021916908373ffffffffffffffffffffffffffffffffffffffff1602179055506112408061005f6000396000f3fe608060405234801561001057600080fd5b506004361061007d5760003560e01c8063462e91ec1161005b578063462e91ec146100ed5780638da5cb5b146101095780638e7ea5b214610127578063a3ec138d146101455761007d565b80630121b93f1461008257806306a49fce1461009e5780633477ee2e146100bc575b600080fd5b61009c600480360381019061009791906107f5565b610175565b005b6100a6610323565b6040516100b391906109c0565b60405180910390f35b6100d660048036038101906100d191906107f5565b61041e565b6040516100e4929190610a3b565b60405180910390f35b61010760048036038101906101029190610ba0565b6104da565b005b610111610611565b60405161011e9190610c2a565b60405180910390f35b61012f610635565b60405161013c9190610c45565b60405180910390f35b61015f600480360381019061015a9190610c93565b61078b565b60405161016c9190610cdb565b60405180910390f35b600260003373ffffffffffffffffffffffffffffffffffffffff1673ffffffffffffffffffffffffffffffffffffffff16815260200190815260200160002060009054906101000a900460ff1615610202576040517f08c379a00000000000000000000000000000000000000000000000000000000081526004016101f990610d68565b60405180910390fd5b6001805490508110610249576040517f08c379a000000000000000000000000000000000000000000000000000000000815260040161024090610dfa565b60405180910390fd5b6001818154811061025d5761025c610e1a565b5b9060005260206000209060020201600101600081548092919061027f90610e78565b91905055506001600260003373ffffffffffffffffffffffffffffffffffffffff1673ffffffffffffffffffffffffffffffffffffffff16815260200190815260200160002060006101000a81548160ff021916908315150217905550803373ffffffffffffffffffffffffffffffffffffffff167f4d99b957a2bc29a30ebd96a7be8e68fe50a3c701db28a91436490b7d53870ca460405160405180910390a350565b60606001805480602002602001604051908101604052809291908181526020016000905b82821015610415578382906000526020600020906002020160405180604001604052908160008201805461037a90610eef565b80601f01602080910402602001604051908101604052809291908181526020018280546103a690610eef565b80156103f35780601f106103c8576101008083540402835291602001916103f3565b820191906000526020600020905b8154815290600101906020018083116103d657829003601f168201915b5050505050815260200160018201548152505081526020019060010190610347565b50505050905090565b6001818154811061042e57600080fd5b906000526020600020906002020160009150905080600001805461045190610eef565b80601f016020809104026020016040519081016040528092919081815260200182805461047d90610eef565b80156104ca5780601f1061049f576101008083540402835291602001916104ca565b820191906000526020600020905b8154815290600101906020018083116104ad57829003601f168201915b5050505050908060010154905082565b60008054906101000a900473ffffffffffffffffffffffffffffffffffffffff1673ffffffffffffffffffffffffffffffffffffffff163373ffffffffffffffffffffffffffffffffffffffff1614610568576040517f08c379a000000000000000000000000000000000000000000000000000000000815260040161055f90610f6c565b60405180910390fd5b60006001805490509050600160405180604001604052808481526020016000815250908060018154018082558091505060019003906000526020600020906002020160009091909190915060008201518160000190816105c89190611138565b50602082015181600101555050807fe83b2a43e7e82d975c8a0a6d2f045153c869e111136a34d1889ab7b598e396a3836040516106059190610c45565b60405180910390a25050565b60008054906101000a900473ffffffffffffffffffffffffffffffffffffffff1681565b606060006001805490500361065b57604051806020016040528060008152509050610788565b60008060005b6001805490508110156106d457826001828154811061068357610682610e1a565b5b90600052602060002090600202016001015411156106c757600181815481106106af576106ae610e1a565b5b90600052602060002090600202016001015492508091505b8080600101915050610661565b50600181815481106106e9576106e8610e1a565b5b9060005260206000209060020201600001805461070590610eef565b80601f016020809104026020016040519081016040528092919081815260200182805461073190610eef565b801561077e5780601f106107535761010080835404028352916020019161077e565b820191906000526020600020905b81548152906001019060200180831161076157829003601f168201915b5050505050925050505b90565b60026020528060005260406000206000915054906101000a900460ff1681565b6000604051905090565b600080fd5b600080fd5b6000819050919050565b6107d2816107bf565b81146107dd57600080fd5b50565b6000813590506107ef816107c9565b92915050565b60006020828403121561080b5761080a6107b5565b5b6000610819848285016107e0565b91505092915050565b600081519050919050565b600082825260208201905092915050565b6000819050602082019050919050565b600081519050919050565b600082825260208201905092915050565b60005b8381101561088857808201518184015260208101905061086d565b60008484015250505050565b6000601f19601f8301169050919050565b60006108b08261084e565b6108ba8185610859565b93506108ca81856020860161086a565b6108d381610894565b840191505092915050565b6108e7816107bf565b82525050565b6000604083016000830151848203600086015261090a82826108a5565b915050602083015161091f60208601826108de565b508091505092915050565b600061093683836108ed565b905092915050565b6000602082019050919050565b600061095682610822565b610960818561082d565b9350836020820285016109728561083e565b8060005b858110156109ae578484038952815161098f858261092a565b945061099a8361093e565b925060208a01995050600181019050610976565b50829750879550505050505092915050565b600060208201905081810360008301526109da818461094b565b905092915050565b600082825260208201905092915050565b60006109fe8261084e565b610a0881856109e2565b9350610a1881856020860161086a565b610a2181610894565b840191505092915050565b610a35816107bf565b82525050565b60006040820190508181036000830152610a5581856109f3565b9050610a646020830184610a2c565b9392505050565b600080fd5b600080fd5b7f4e487b7100000000000000000000000000000000000000000000000000000000600052604160045260246000fd5b610aad82610894565b810181811067ffffffffffffffff82111715610acc57610acb610a75565b5b80604052505050565b6000610adf6107ab565b9050610aeb8282610aa4565b919050565b600067ffffffffffffffff821115610b0b57610b0a610a75565b5b610b1482610894565b9050602081019050919050565b82818337600083830152505050565b6000610b43610b3e84610af0565b610ad5565b905082815260208101848484011115610b5f57610b5e610a70565b5b610b6a848285610b21565b509392505050565b600082601f830112610b8757610b86610a6b565b5b8135610b97848260208601610b30565b91505092915050565b600060208284031215610bb657610bb56107b5565b5b600082013567ffffffffffffffff811115610bd457610bd36107ba565b5b610be084828501610b72565b91505092915050565b600073ffffffffffffffffffffffffffffffffffffffff82169050919050565b6000610c1482610be9565b9050919050565b610c2481610c09565b82525050565b6000602082019050610c3f6000830184610c1b565b92915050565b60006020820190508181036000830152610c5f81846109f3565b905092915050565b610c7081610c09565b8114610c7b57600080fd5b50565b600081359050610c8d81610c67565b92915050565b600060208284031215610ca957610ca86107b5565b5b6000610cb784828501610c7e565b91505092915050565b60008115159050919050565b610cd581610cc0565b82525050565b6000602082019050610cf06000830184610ccc565b92915050565b7f566f74696e67436f6e74726163743a20596f75206861766520616c726561647960008201527f20766f7465642e00000000000000000000000000000000000000000000000000602082015250565b6000610d526027836109e2565b9150610d5d82610cf6565b604082019050919050565b60006020820190508181036000830152610d8181610d45565b9050919050565b7f566f74696e67436f6e74726163743a20496e76616c69642063616e646964617460008201527f6520696e6465782e000000000000000000000000000000000000000000000000602082015250565b6000610de46028836109e2565b9150610def82610d88565b604082019050919050565b60006020820190508181036000830152610e1381610dd7565b9050919050565b7f4e487b7100000000000000000000000000000000000000000000000000000000600052603260045260246000fd5b7f4e487b7100000000000000000000000000000000000000000000000000000000600052601160045260246000fd5b6000610e83826107bf565b91507fffffffffffffffffffffffffffffffffffffffffffffffffffffffffffffffff8203610eb557610eb4610e49565b5b600182019050919050565b7f4e487b7100000000000000000000000000000000000000000000000000000000600052602260045260246000fd5b60006002820490506001821680610f0757607f821691505b602082108103610f1a57610f19610ec0565b5b50919050565b7f566f74696e67436f6e74726163743a204e6f7420746865206f776e65722e0000600082015250565b6000610f56601e836109e2565b9150610f6182610f20565b602082019050919050565b60006020820190508181036000830152610f8581610f49565b9050919050565b60008190508160005260206000209050919050565b60006020601f8301049050919050565b600082821b905092915050565b600060088302610fee7fffffffffffffffffffffffffffffffffffffffffffffffffffffffffffffffff82610fb1565b610ff88683610fb1565b95508019841693508086168417925050509392505050565b6000819050919050565b600061103561103061102b846107bf565b611010565b6107bf565b9050919050565b6000819050919050565b61104f8361101a565b61106361105b8261103c565b848454610fbe565b825550505050565b600090565b61107861106b565b611083818484611046565b505050565b5b818110156110a75761109c600082611070565b600181019050611089565b5050565b601f8211156110ec576110bd81610f8c565b6110c684610fa1565b810160208510156110d5578190505b6110e96110e185610fa1565b830182611088565b50505b505050565b600082821c905092915050565b600061110f600019846008026110f1565b1980831691505092915050565b600061112883836110fe565b9150826002028217905092915050565b6111418261084e565b67ffffffffffffffff81111561115a57611159610a75565b5b6111648254610eef565b61116f8282856110ab565b600060209050601f8311600181146111a25760008415611190578287015190505b61119a858261111c565b865550611202565b601f1984166111b086610f8c565b60005b828110156111d8578489015182556001820191506020850194506020810190506111b3565b868310156111f557848901516111f1601f8916826110fe565b8355505b6001600288020188555050505b50505050505056fea264697066735822122081f478d6cecc11ef3525d9edd54f7a09a4ae685bf60927e4591fae13d8ae294764736f6c634300081c0033",
  "linkReferences": {},
  "deployedLinkReferences": {}
}